:100000000C9434000C9446000C9446000C9446006A
:100010000C9446000C9446000C9446000C94460048
:100020000C9446000C9446000C9446000C94CE00B0
:100030000C9446000C9446000C9446000C94460028
:100040000C9446000C9446000C9446000C94460018
:100050000C9446000C9446000C9446000C94460008
:100060000C9446000C94460011241FBECFEFD8E03C
:10007000DEBFCDBF21E0A0E0B1E001C01D92AC30F9
:10008000B207E1F70E9448000C9478010C9400003C
:100090000E942F01299A0E9465000E94B6000E94CA
:1000A000A7000E94390183EC99E00197F1F700C0A5
:1000B000000080910001865F80930001843189F700
:1000C0000E94730010920001ECCF10920401109274
:1000D000030110920B0110920A011092020181E0BB
:1000E00080930101089585B190E1892785B98091B8
:1000F00003019091040144969093040180930301BD
:100100008436910568F0809102018850853090F422
:100110001092010110920201109204011092030149
:1001200080910A0190910B01019690930B018093AD
:100130000A01089581E080930101ECCF80910101D3
:100140000895809102018F5F8093020108958FB717
:100150008F778FBFA895E0E6F0E08081886180838B
:100160008AE480838FB780688FBF08958FB78F77B9
:100170008FBFE1E8F0E080818860808380818360C8
:1001800080838CE093E0909389008093880082E0E4
:1001900080936F008FB780688FBF08951F920F9272
:1001A0000FB60F9211242F933F934F935F936F934A
:1001B0007F938F939F93AF93BF93EF93FF93809120
:1001C0000501909106010196909306018093050127
:1001D0008130910599F0029729F1FF91EF91BF913C
:1001E000AF919F918F917F916F915F914F913F91CF
:1001F0002F910F900FBE0F901F90189580910A01BC
:1002000090910B0102974CF361E082E00E94620141
:10021000A89560E082E00E94620110920B011092AA
:100220000A01DBCF80910A0190910B0102972CF417
:100230001092060110920501D0CF0E949E008111FC
:10024000F7CF61E082E00E946201A89560E082E061
:100250000E94620110920B0110920A01E9CF1092E4
:1002600009011092080181E0809307010E945B015F
:10027000089585B198E0892785B98091080190910A
:1002800009010A969093090180930801843F9140E7
:1002900018F40E94A100089561E080910701811186
:1002A00060E06093070180E00E9462011092090102
:1002B00010920801EECF209A219A229A239A249A2A
:1002C000289A089595B121E030E0082E02C0220F4F
:1002D000331F0A94E2F72095292325B995B170E0E0
:1002E00002C0660F771F8A95E2F7692B65B90895FA
:0402F000F894FFCFB0
:00000001FF
